:040000008A11E62F4C
:10000A007808790403193228FD01FD0AF91B192819
:10001A0001300310F80DF90DFF3E031D0E280130C3
:10002A00FC007C08FD070B2879087B02031D1F28AA
:10003A0078087A02031C27287808FA027908031C30
:10004A00FB03FB0201300310F90CF80CFF3E031D01
:10005A0028280130FD02031D19287B08F9007A08B7
:10006A00F8000800F8007808F7007508840083177C
:10007A00761C83137708800078088A15F8258A1178
:10008A0070087104031D8A280330F700750884007C
:10009A008317761C8313770880008A2875088400E2
:1000AA008317761C831380010800831203135D08EB
:1000BA00803AFF0080307F02031D652865305C02AC
:1000CA00031C6E28750884008317761C831380012D
:1000DA0008000330F700750884008317761C831321
:1000EA00770880000800750884008317761C83133C
:1000FA008001800A08000230F7007508840083171F
:10010A00761C83137708800008007808003A0319E0
:10011A005328013A03195A28033A03197828013A4D
:10012A0003199B28073A031980289B280800831281
:10013A000313A0000230A2000030A30083120313AD
:10014A002308803AFF0080307F02031DAE28033067
:10015A0022020318D628831203132208013E7607C7
:10016A00F8007808840083130008F9007908F00081
:10017A0022082007FA007A08840000088A151A263D
:10018A008A11003A031DA3284130F8007808831227
:10019A000313A1000130A2070318A30A0030A30722
:1001AA00A3285730831203132102031CE4285A3070
:1001BA0021020318E4280730A2000030A3005230BD
:1001CA002106031DED280130F6000030F700080073
:1001DA007608F8007808F00020088A15AC268A11FB
:1001EA007108803AFF0080307F02031DFE2801302B
:1001FA007002031C1129073083120313A207031884
:10020A00A30A0030A3072308DD002208DC0001301E
:10021A00F6000030F7000800F601F7010800FB00BD
:10022A007508053EFC0076080318013E003EFD00F5
:10023A007C0883120313A00020077B07A100210872
:10024A008400770883178000840A780880007C0875
:10025A00A00020077B07A100210884000008A20053
:10026A00840A0008A3007C08A4002407023E7B0736
:10027A00A5002508840022088000840A230880003B
:10028A007C08A00020073C3E7B07A10021088400CF
:10029A007C088000840A7D0880007D08FA007C08BA
:1002AA00F9007C08013EA0007D080318013E003ECB
:1002BA00A1002108803AA2007A08803A2202031D8E
:1002CA00682979082002031C8C29643083120313DD
:1002DA00A0002008F0007C088A1509268A117407F4
:1002EA0083120313A1007908A20022072107A300A1
:1002FA00230884007C0883178000840A7D08800014
:10030A000130F9070318FA0A0030FA0756297C085F
:10031A0083120313A0002007FE3E7407A100643075
:10032A00A2002208F0007C088A1509268A11831285
:10033A0003132107A30023088400013083178007D1
:10034A00840A0318800A7C08A00020077B07A10002
:10035A00210884000008A200840A0008A30064306F
:10036A00A4002408F0007C08143E8A1509267407A4
:10037A0083120313A5007C08A60026072507A700F9
:10038A0027088400220883178000840A2308800033
:10039A000530DC000030DD0008008312031320085A
:1003AA0084008317211C83130008A800840A00080C
:1003BA008403A900200884008317211C83130008E2
:1003CA00F000840A00088403F100831603136B0803
:1003DA00F2006C08F3002530F4000030F5008A15AD
:1003EA00D1268A110430831203132007A2002108A0
:1003FA000318013EA300220884008317231C8313D9
:10040A0005308000840A0030800004302007A200F2
:10041A0021080318013EA300220884008317231C25
:10042A0083130008A400840A0008A50004302807E2
:10043A00A60029080318013EA7002608840083178E
:10044A00271C831324088000840A250880002008BA
:10045A0084008317211C83130008A200840A000861
:10046A00A300280884008317291C8313220880000C
:10047A002308840A800084032808FA002908FB005C
:10048A008A15FF268A110230831203132807A20055
:10049A0029080318013EA300220884008317231C9D
:1004AA0083130008031DB92A04302807A20029086B
:1004BA000318013EA300220884008317231C831318
:1004CA0006308000840A0030800003302807F500D7
:1004DA0029080318013EF60003302007A20021086C
:1004EA000318013EA300220884008317231C8313E8
:1004FA0000088A1137208A11831603136B088400B7
:10050A0083176C1C8313000883120313A200840A46
:10051A000008A300280884008317291C83132208D3
:10052A0080002308840A8000840304302807A2007C
:10053A0029080318013EA300220884008317231CFC
:10054A0083130008F000840A0008F1000A30F20060
:10055A000030F30004302807F40029080318013E8C
:10056A00F5008A1531260800831203132008F000CB
:10057A002108F100200884008317211C8313000836
:10058A00F200840A00088403F3002530F4000030E6
:10059A00F5008A15D1260800223083120313A4001D
:1005AA002408AB00831203132108A5002008A40025
:1005BA00A00A0319A10A2508FF00240884008A1545
:1005CA0000208A11A6002608AE002E08031908008A
:1005DA0025302E060319F62A2E088A15E4258A11D3
:1005EA00D72A83120313A7013A2B2B0884008313FB
:1005FA000008A900840A00088403AA000230A400A3
:10060A002408AB0729082A04031D0F2B9830A900D8
:10061A008830AA002A08FF00290884008A150020C9
:10062A008A11003A0319D72A2A08FF0029088400E8
:10063A008A1500208A118A15E4258A11013083124D
:10064A000313A9070318AA0A0F2B2B088400831384
:10065A000008A4002408AE000230A4002408AB0756
:10066A002E088A15E4258A11D72A83120313210832
:10067A00A5002008A400A00A0319A10A2508FF0062
:10068A00240884008A1500208A11AE00003A031952
:10069A00E12B633A03192A2B073A03195B2B0D3A0C
:1006AA0003195B2B1A3A0319FA2A352B83120313FF
:1006BA002B08840083130008AC00840A0008AD00EC
:1006CA000230A4002408AB07AD1F742B0330A4002A
:1006DA002408A704AC09AD09AC0A0319AD0AAE0196
:1006EA00AE0A05302E0603199B2B2E08A4002407F8
:1006FA00123E840088300318013EFF008A1500204C
:10070A008A11A5008A1500208A11A60026082D0242
:10071A00031D912B25082C02031C9B2B0130A400DE
:10072A002408AE0705302E06031D7A2B2708033945
:10073A000319A32B2D308A15E4258A11831203137A
:10074A002E08A4002408A800FF3083120313A40073
:10075A002408A807280A0319D72A0A30F800003003
:10076A00F9002808A4002407123E840088300318E0
:10077A00013EFF008A1500208A11F0008A15002028
:10078A008A11F1002D08F3002C08F2008A156B2754
:10079A008A117108FB007008FA008A1105208A1173
:1007AA007808303E83120313A5002508AE002E08F0
:1007BA008A15E4258A11A92B08000000C230831289
:1007CA000313AF002F0883160313EA00C130EB00AE
:1007DA000030EC006B08840083176C1C83136A08D2
:1007EA0080006A08FF39031D0130840A80008403EF
:1007FA0002306B0783120313AF00831603136C08CE
:10080A000318013E83120313B0002F0884008317D4
:10081A00301C831380010230AF00033083160313A8
:10082A006B0783120313B000831603136C080318B3
:10083A00013E83120313B100300884008317311C70
:10084A0083132F0880000430831603136B07831267
:10085A000313AF00831603136C080318013E8312B7
:10086A000313B0002F0884008317301C8313283029
:10087A008000840A003080000630831603136B0759
:10088A00F0006C080318013EF1005A30F20088307B
:10089A00F3008A158B268A113330F0000030F100FC
:1008AA007930F2008830F3008A158B268A11831674
:1008BA0003136A0884006B0883178000840A6C0893
:1008CA0080000A3083120317FE000030FF00E83070
:1008DA0083120313D2000330D3002630A0008930DC
:1008EA00A1008A11D1228A11013083120313D50083
:1008FA000030D6005308803AAF005608803A2F02DB
:10090A00031D892C55085202031CF42D8A15ED2566
:10091A008A118A154C268A11023083160313E800BD
:10092A000030E9000330E6000030E700A030F000B4
:10093A000030F1001C30F2008830F3008A158B2653
:10094A008A1183120313D701D70AA030AF002F08E8
:10095A00F60033308A119C208A1176087704031D29
:10096A00B82C0130B92C003083120313B000B10146
:10097A003008DA003108DB00831603136908803A6D
:10098A0083120313AF00831603136708803A831296
:10099A0003132F02031DD52C83160313660868025E
:1009AA0003181B2D83160313660983120313AF0062
:1009BA0083160313670983120313B000AF0A0319DE
:1009CA00B00A831603136908F1006808F0000530BD
:1009DA00F2000030F3008A156A268A118312031383
:1009EA002F08700783160313BF00831203133008FE
:1009FA000318300A710783160313C0006908F1004F
:100A0A006808F0006708F3006608F200BF30F400D7
:100A1A000030F5008A1531268A1101308316031336
:100A2A00E8070318E90A0030E907C12C10308312DD
:100A3A000313AF002F08F400831603136908F600A6
:100A4A006808F5004008F8003F08F70090308A115E
:100A5A0014218A11831603136B0883120313A0004F
:100A6A00831603136C0883120313A1008A11D2217F
:100A7A008A11413083120313AF002F08D40054089F
:100A8A00831603136D02031C822D43308312AF00B9
:100A9A002F08F00054088A151A268A1183120313A4
:100AAA005706031D7D2D5730F5000030F600000172
:100ABA008A1137208A11A030F0000030F1003B3053
:100ACA00F2008830F3008A158B268A1183120313E9
:100ADA00560883160313E700831203135508831677
:100AEA000313E600831203135608DD005508DC00E1
:100AFA000130AF002F08D407442D6708F1006608BB
:100B0A00F0006908F3006808F2008A156A268A115B
:100B1A00710883160313E7007008E6004008F10025
:100B2A003F08F0006708F3006608F2008A15A72755
:100B3A008A11710883160313E9007008E80068092E
:100B4A0083120313AF008316031369098312031375
:100B5A00B000AF0A0319B00A831603133F098312C0
:100B6A000313B10083160313400983120313B2005F
:100B7A00B10A0319B20A8316031366088312031310
:100B8A003107F0008316031367080318670A8312F4
:100B9A0003133207F1000730F2000030F3008A1520
:100BAA006A268A11831203132F0870078316031308
:100BBA00E6008312031330080318300A71078316FC
:100BCA000313E700E8308A1530278A1101308312AF
:100BDA000313D5070318D60A0030D6077F2C233013
:100BEA0083120313A0008930A1008A11D1228A112D
:100BFA00AB3083120313A0008830A1005D08A30064
:100C0A005C08A2008A11D1228A11B130831203131F
:100C1A00A0008830A1005B08A3005A08A2008A112C
:100C2A00D1228A119F3083120313A0008830A100B9
:100C3A00831603136E0883120313AF00B0012F0843
:100C4A00A2003008A3008A11D1228A11A53083128A
:100C5A000313A0008830A100831603136D088312C2
:100C6A000313AF00B0012F08A2003008A3008A11B5
:100C7A00D1228A11B73083120313A0008830A10051
:100C8A0083160317210883120313A300831603177D
:100C9A00200883120313A2008A11D1228A11BD30BF
:100CAA0083120313A0008830A100831203177F0860
:100CBA0083120313A300831203177E0883120313FC
:100CCA00A2008A11D1228A11C33083120313A00011
:100CDA008830A100831603136B08840083176C1CE9
:100CEA008313000883120313A200840A0008A300D6
:100CFA008A11D1228A11C93083120313A0008830C5
:100D0A00A1000230831603136B0783120313AF008B
:100D1A00831603136C080318013E83120313B000F1
:100D2A002F0884008317301C83130008B100B20116
:100D3A003108A2003208A3008A11D1228A11CF30C9
:100D4A0083120313A0008830A10003308316031313
:100D5A006B0783120313AF00831603136C0803187F
:100D6A00013E83120313B0002F0884008317301C3E
:100D7A0083130008B100B2013108A2003208A300AF
:100D8A008A11D1228A11D53083120313A000883028
:100D9A00A1000430831603136B0783120313AF00F9
:100DAA00831603136C080318013E83120313B00061
:100DBA002F0884008317301C83130008A200840ABA
:100DCA000008A3008A11D1228A110B30831203135F
:100DDA00A0008930A1000630831603136B07831223
:100DEA000313AF00831603136C080318013E831222
:100DFA000313B0002F08A2003008A3008A11D122E1
:100E0A008A11DB3083120313A0008830A1008316F5
:100E1A0003136A0884008317000883120313A200CD
:100E2A00840A0008A3008A11D1228A11E1308312B0
:100E3A000313A0008830A100831603136A08023E38
:100E4A0084008317000883120313AF00B0012F0830
:100E5A00A2003008A3008A11D1228A11E730831236
:100E6A000313A0008830A100831603136A08033E07
:100E7A0084008317000883120313AF00B0012F0800
:100E8A00A2003008A3008A11D1228A11ED30831200
:100E9A000313A0008830A100831603136A08043ED6
:100EAA0084008317000883120313A200840A00082F
:100EBA00A3008A11D1228A11113083120313A000D0
:100ECA008930A100831603136A08063E83120313AE
:100EDA00A2000130A3008A11D1228A11F3308312B1
:100EEA000313A0008830A100831603136908831234
:100EFA000313A30083160313680883120313A200C3
:100F0A008A11D1228A11F93083120313A000883082
:100F1A00A10083160313670883120313A300831621
:100F2A000313660883120313A2008A11D1228A11BD
:100F3A00FF3083120313A0008830A1008316031325
:100F4A00400883120313A300831603133F08831276
:100F5A000313A2008A11D1228A11053083120313C6
:100F6A00A0008930A1005708AF00B0012F08A200E5
:100F7A003008A3008A11D1228A1117308312031371
:100F8A00A0008930A1003330A2000030A3008A11EA
:100F9A00D1228A111D3083120313A0008930A100C7
:100FAA00A030A2000030A3008A11D1228A11243075
:100FBA0083120313A0008930A1008A11D1228A1159
:100FCA0000288313583084005E308A15DC258A1184
:100FDA0083160313ED01EE01831790308400C230AB
:100FEA008A15DC258A111030840064308A15DC25C4
:100FFA0083018A11E22BFF1B0A2883137F188317A8
:10100A000008840A0319FF0A08007F087F398A004A
:10101A000408840A0319FF0A8200013400340A34DE
:10102A00003464340034E83403341034273444344C
:10103A00483452345934533454344F344E3445348A
:10104A002034503452344F344734523441344D34BE
:10105A002C342034323427344E344434203453343C
:10106A005434523449344E344734003444344834C6
:10107A0052345934533454344F344E344534203472
:10108A00503452344F344734523441344D342C3472
:10109A0020343334273452344434203453345434CF
:1010AA00523449344E344734003444344834523488
:1010BA005934533454344F344E3445342034503434
:1010CA0052344F344734523441344D342C34203462
:1010DA0053344F344D344534203453345434523419
:1010EA0049344E3447340034443448345234593441
:1010FA00533454344F344E344534203450345234FB
:10110A004F344734523441344D342C342034313442
:10111A0027345334543420345334543452344934F5
:10112A004E344734003428346E3475346C346C349D
:10113A002934003463343A34253463340A340034AD
:10114A0064343A34253463340A34003461343A342A
:10115A00253464340A34003462343A34253464342D
:10116A000A34003465343A34253464340A34003499
:10117A0066343A34253464340A34003467343A34F1
:10118A00253464340A34003468343A3425346434F7
:10119A000A34003469343A34253464340A34003465
:1011AA006A343A34253464340A3400346C343A34B8
:1011BA00253464340A3400346D343A3425346434C2
:1011CA000A3400346E343A34253464340A34003430
:1011DA006F343A34253464340A34003471343A347E
:1011EA00253464340A34003472343A34253464348D
:1011FA000A34003473343A34253464340A340034FB
:10120A0074343A34253464340A3400346B343A344E
:10121A00253473340A34003470343A342534733440
:10122A000A34003475343A34253473340A340034B9
:10123A0076343A34253473340A3400345D340A344B
:06124A0000345B340034A7
:101BB80064008001840A0406031900340406DD2D3C
:101BC800F2007208F000F1017008F3007108F400E7
:101BD80008004130F000700883160313EE008312EA
:101BE8000313DA01DB010800F3007308F20072083E
:101BF800F40002307406031D062E0130F000003098
:101C0800F1000800F001F1010800F300F201731C73
:101C1800112E7008F1007108F2070310F00D03107F
:101C2800F30C7308031D0B2E72080800F2007208EB
:101C3800F1007108F4007408F1007108F3007308EA
:101C480070060319292E003008007408F100710885
:101C580083160313EE00013008007008023EF800F6
:101C680071080318013E003EF90078087207F60073
:101C780079080318790A7307F70074088400831732
:101C8800751C831376088000840A77088000080092
:101C98004130831603136E06031D542E0130552E52
:101CA8000030F000F1017008F2007108F3008312AF
:101CB80003135A087204DA005B087304DB0042302D
:101CC800F000700883160313ED000800F401F50115
:101CD800701C742E7208F4070318F50A7308F507C8
:101CE80001300310F20DF30DFF3E031D752E013078
:101CF8000310F10CF00CFF3E031D7C2E70087104DC
:101D0800031D6C2E7508F1007408F00008007008B7
:101D1800F5007108F600730883120313FF007208B8
:101D280084008A1500208A15F4007508840083173A
:101D3800761C83137408800000080319080001301A
:101D4800F5070318F60A0130F2070318F30A8F2E75
:101D5800F500B62E0130F2007208F5070130F200E6
:101D68007208F0077508840083130008F2007008F1
:101D780084000003FF3A7207F3007308F400740844
:101D8800031DCB2E750884000008031DAE2E7408B1
:101D9800F000F101F01BF10308007208FA00730863
:101DA800FB007008F8007108F9000130F4020030F7
:101DB800031CF503F502740A0319750A03190800D0
:101DC8007A08840083177B1C83130008F6007608C2
:101DD800F7000130FA070318FB0A7708F6007808BD
:101DE80084008317791C8313760880000130F80774
:101DF8000318F90AD92E831603136B086C04031908
:101E08001A2F6B08840083176C1C83130008FC00CE
:101E1800840A0008FD007A08840083177B1C83135A
:101E28007C0880007D08840A800084030A30F00062
:101E38000030F100831203135D08F3005C08F20020
:101E48000430831603136B07F4006C080318013E73
:101E5800F5008A1531260800F700770884008313F7
:101E68000008F000840A0008F10070080A3EF50036
:101E780071080318013E003EF60041308316031333
:101E88006E06031D672FFF30F5070318F60AFF30AB
:101E9800F607831203135C09F0005D09F100F00AEC
:101EA8000319F10A75087007F20076080318760A14
:101EB8007107F30077088400720883138000840A8E
:101EC80073088000F401740803190800412FF60113
:101ED800F701700871040319A22FF501F50AF11B27
:101EE800812F01300310F00DF10DFF3E031D762FF9
:101EF8000130F4007408F507732F01300310F60D54
:101F0800F70DFF3E031D822F71087302031D8E2FEC
:101F180070087202031C972F7008F2027108031CE4
:101F2800F303F302761401300310F10CF00CFF3EBA
:101F3800031D982F0130F502031D812F7708F1004A
:101F48007608F0000800F601F11FB12FF009F10939
:101F5800F00A0319F10AF601F60AF31FBC2FF20979
:101F6800F309F20A0319F30A0130F4007408F606BB
:101F7800F701F801700871040319F32FF501F50A48
:101F8800F11BD22F01300310F00DF10DFF3E031DA0
:101F9800C72F0130F4007408F507C42F013003106F
:101FA800F70DF80DFF3E031DD32F71087302031DB3
:101FB800DF2F70087202031CE82F7008F202710804
:101FC800031CF303F302771401300310F10CF00C37
:101FD800FF3E031DE92F0130F502031DD22F7608BD
:101FE8000319FB2FF709F809F70A0319F80A780803
:081FF800F1007708F000080079
:02400E00FBFFB6
:00000001FF
